S10F0000000000000000000000000000F0
S12301003140C0FFB24003000000B24003000200B24003000400B24001000600B2400100DA
S12301200800B24001000A00B2402500070035500100B2405000090035500100B2407500DA
S11901400B003550010032D008003650010036900A00FB23FF3F57
S1230200924201000700374007000013924203000900385008000013924205000B0039507D
S1230220090000139242070032003A500A0000139242090032003B500B00001392420B0053
S10B024032003C500C000013D5
S10FFFC000020C021802240230023C0271
S5030008F4
S9030100FB
