S10F0000000000000000000000000000F0
S12301003140C0FFB24003000000B24003000200B24003000400B24001000600B2400100DA
S12301200800B24001000A00B2402500070035500100B2405000090035500100B2407500DA
S11901400B003550010032D008003650010036900A00FB23FF3F57
S1230200924201000700375002000013924203000900385002000013924205000B00395078
S1230220020000139242070032003A50020000139242090032003B500200001392420B006B
S10B024032003C5002000013DF
S10FFFC000020C021802240230023C0271
S5030008F4
S9030100FB
